:020000040800F2
:1000000000500020F10600084107000841070008E1
:1000100041070008410700084107000800000000F0
:100020000000000000000000000000004107000880
:1000300041070008000000004107000841070008D0
:100040004107000841070008410700084107000870
:100050004107000841070008B504000841070008EF
:100060004107000841070008410700084107000850
:100070004107000841070008410700084107000840
:100080004107000841070008410700084107000830
:100090004107000841070008410700084107000820
:1000A0004107000841070008410700084107000810
:1000B0004107000841070008410700084107000800
:1000C00041070008410700084107000841070008F0
:1000D00041070008410700084107000841070008E0
:1000E0004107000841070008000000004107000820
:1000F00041070008410700084107000841070008C0
:1001000041070008410700084107000841070008AF
:10011000410700084107000841070008410700089F
:10012000410700084107000841070008410700088F
:1001300010B5054C237833B9044B13B10448AFF321
:1001400000800123237010BD00000020000000008B
:100150008C07000808B5034B1BB103490348AFF3F4
:10016000008008BD00000000040000208C0700088B
:1001700080B400AF204B1B681F4A43F0020313609A
:1001800000BF1D4B1B6803F00203002BF9D01A4B74
:10019000194A1B681360184B174A1B681360164BEB
:1001A000154A1B681360144B134A1B681360124BEB
:1001B000114A1B681360104B1B680F4A43F400334D
:1001C00013600D4B1B680C4A43F4601313600A4B19
:1001D0001B68094A43F480031360074B064A1B68F7
:1001E0001360064B1B68054A43F00103136000BF10
:1001F00000BFBD4680BC70470410024000100240A2
:1002000080B483B000AF03460A46FB711346BB714E
:10021000BB791F2B2AD8FB79022B1CD0022B25DCA3
:10022000002B02D0012B0BD020E0134B1B68BA79B6
:10023000012101FA02F211460F4A0B43136015E047
:100240000E4B1B68BA79012101FA02F211460B4AE2
:100250000B4313600AE00A4B1B68BA79012101FACB
:1002600002F21146064A0B43136000BF00BF0C3771
:10027000BD4680BC704700BF141002401C100240F5
:100280001810024080B483B000AF0346FB710B46E8
:10029000BB7113467B71FB79022B00F2B380BB79F3
:1002A0000F2B00F2AF80BB79072B52D8FB79022BC2
:1002B00037D0022B00F3A680002B02D0012B18D0E0
:1002C000A0E0534B1B68BA7992000F2101FA02F2A9
:1002D000D24311464E4A0B4013604D4B1B6879794F
:1002E000BA79920001FA02F21146494A0B431360AF
:1002F00088E0484B1B68BA7992000F2101FA02F29C
:10030000D2431146434A0B401360424B1B68797934
:10031000BA79920001FA02F211463E4A0B43136089
:1003200070E03D4B1B68BA7992000F2101FA02F28E
:10033000D2431146384A0B401360374B1B6879791A
:10034000BA79920001FA02F21146334A0B43136064
:1003500058E0BB790F2B54D8BB79083BBB71FB79B4
:10036000022B36D0022B4DDC002B02D0012B18D0F3
:1003700048E02A4B1B68BA7992000F2101FA02F279
:10038000D2431146254A0B401360244B1B687979F0
:10039000BA79920001FA02F21146204A0B43136027
:1003A00030E01F4B1B68BA7992000F2101FA02F26C
:1003B000D24311461A4A0B401360194B1B687979D6
:1003C000BA79920001FA02F21146154A0B43136002
:1003D00018E0144B1B68BA7992000F2101FA02F25F
:1003E000D24311460F4A0B4013600E4B1B687979BC
:1003F000BA79920001FA02F211460A4A0B431360DD
:1004000000E000BF00BF0C37BD4680BC704700BF96
:1004100000080140000C01400010014004080140A8
:10042000040C01400410014080B483B000AF0346C7
:100430000A46FB711346BB71FB79022B2DD8BB79A1
:100440000F2B2AD8FB79022B1CD0022B26DC002B89
:1004500002D0012B0BD021E0134B1B68BA7901218C
:1004600001FA02F21146104A4B40136016E00F4B9E
:100470001B68BA79012101FA02F211460B4A4B407E
:1004800013600BE00A4B1B68BA79012101FA02F2F2
:100490001146074A4B40136000E000BF00BF0C3715
:1004A000BD4680BC704700BF0C0801400C0C0140E9
:1004B0000C10014080B500AF074B5B69064A43F062
:1004C0000103536105210020FFF7AEFF192000F062
:1004D00005F800BF80BD00BF0004014080B485B0B6
:1004E00000AF78600023FB6003E000BFFB680133CE
:1004F000FB607B684FF4FA7202FB03F3FA689A42DE
:10050000F3D300BF00BF1437BD4680BC7047000066
:1005100080B400AF074B1B68064A43F400431360E6
:10052000044B1B68034A23F40043136000BFBD461D
:1005300080BC70470054004080B500AFFFF7E8FF73
:100540000C4B5B680B4A43F008035360094BDB69B3
:10055000084A43F02803D361064B1B6A054A43F05F
:1005600009031362034B1B68024A43F00103136043
:1005700000BF80BD0054004080B400AF084B1B6832
:10058000074A43F48073136000BF054B5B6903F0B7
:100590000103002BF9D000BF00BFBD4680BC7047EF
:1005A0000054004080B483B000AF0346FB71084A9A
:1005B000FB79136100BF064B5B6903F00203002B5C
:1005C000F9D000BF00BF0C37BD4680BC704700BFEC
:1005D0000054004080B483B000AF0346FB7100BFFD
:1005E0000B4B5B69DB0903F00103002BF8D0084AD1
:1005F000FB79136100BF064B5B699B0803F00103A5
:10060000002BF8D000BF00BF0C37BD4680BC704740
:100610000054004080B483B000AFFF23FB7100BFE3
:10062000074B5B699B0903F00103002BF8D0044BD7
:100630001B69FB71FB7918460C37BD4680BC7047BF
:100640000054004080B400AF044B1B68034A23F4FD
:100650000073136000BFBD4680BC7047005400406B
:1006600080B582B000AFFFF783FD02210220FFF7C3
:10067000C7FD03210220FFF7C3FD04210220FFF77D
:10068000BFFD00210220FFF7BBFD15210120FFF770
:10069000B7FD0D2206210120FFF7F4FD0D220721F1
:1006A0000120FFF7EFFDFFF747FFFFF765FF84200D
:1006B000FFF778FF0120FFF775FF4120FFF78AFF62
:1006C000FFF7C0FF00237B60FFF756FF8420FFF792
:1006D00069FF0120FFF766FFFFF74EFF8420FFF759
:1006E00061FFFFF797FF03467B60FFF7ABFFEBE788
:1006F0000D488546AFF300800C480D490D4A002394
:1007000002E0D458C4500433C4188C42F9D30A4AC6
:100710000A4C002301E013600432A242FBD300F034
:1007200011F8FFF79DFFFEE70050002000000020B9
:1007300000000020AC070008000000201C00002082
:10074000FEE7000070B500260C4D0D4C641BA41094
:10075000A64209D100F01AF800260A4D0A4C641B83
:10076000A410A64205D170BD55F8043B9847013648
:10077000EEE755F8043B98470136F2E7A407000876
:10078000A4070008A4070008A8070008F8B500BFE0
:10079000F8BC08BC9E467047F8B500BFF8BC08BC62
:0407A0009E467047BA
:0407A40055010008F3
:0407A8003101000813
:04000005080006F1F8
:00000001FF
