:020000040800F2
:1000000000500020050800085508000855080008A1
:1000100055080008550800085508000800000000B1
:10002000000000000000000000000000550800086B
:100030005508000800000000550800087D0500086C
:10004000550800085508000855080008550800081C
:100050005508000855080008B504000855080008B0
:1000600055080008550800085508000855080008FC
:1000700055080008550800085508000855080008EC
:1000800055080008550800085508000855080008DC
:1000900055080008550800085508000855080008CC
:1000A00055080008550800085508000855080008BC
:1000B00055080008550800085508000855080008AC
:1000C000550800085508000855080008550800089C
:1000D000550800085508000855080008550800088C
:1000E00055080008550800080000000055080008E1
:1000F000550800085508000855080008550800086C
:10010000550800085508000855080008550800085B
:10011000550800085508000855080008550800084B
:10012000550800085508000855080008550800083B
:1001300010B5054C237833B9044B13B10448AFF321
:1001400000800123237010BD00000020000000008B
:10015000A008000808B5034B1BB103490348AFF3DF
:10016000008008BD0000000004000020A008000876
:1001700080B400AF204B1B681F4A43F0020313609A
:1001800000BF1D4B1B6803F00203002BF9D01A4B74
:10019000194A1B681360184B174A1B681360164BEB
:1001A000154A1B681360144B134A1B681360124BEB
:1001B000114A1B681360104B1B680F4A43F400334D
:1001C00013600D4B1B680C4A43F4601313600A4B19
:1001D0001B68094A43F480031360074B064A1B68F7
:1001E0001360064B1B68054A43F00103136000BF10
:1001F00000BFBD4680BC70470410024000100240A2
:1002000080B483B000AF03460A46FB711346BB714E
:10021000BB791F2B2AD8FB79022B1CD0022B25DCA3
:10022000002B02D0012B0BD020E0134B1B68BA79B6
:10023000012101FA02F211460F4A0B43136015E047
:100240000E4B1B68BA79012101FA02F211460B4AE2
:100250000B4313600AE00A4B1B68BA79012101FACB
:1002600002F21146064A0B43136000BF00BF0C3771
:10027000BD4680BC704700BF141002401C100240F5
:100280001810024080B483B000AF0346FB710B46E8
:10029000BB7113467B71FB79022B00F2B380BB79F3
:1002A0000F2B00F2AF80BB79072B52D8FB79022BC2
:1002B00037D0022B00F3A680002B02D0012B18D0E0
:1002C000A0E0534B1B68BA7992000F2101FA02F2A9
:1002D000D24311464E4A0B4013604D4B1B6879794F
:1002E000BA79920001FA02F21146494A0B431360AF
:1002F00088E0484B1B68BA7992000F2101FA02F29C
:10030000D2431146434A0B401360424B1B68797934
:10031000BA79920001FA02F211463E4A0B43136089
:1003200070E03D4B1B68BA7992000F2101FA02F28E
:10033000D2431146384A0B401360374B1B6879791A
:10034000BA79920001FA02F21146334A0B43136064
:1003500058E0BB790F2B54D8BB79083BBB71FB79B4
:10036000022B36D0022B4DDC002B02D0012B18D0F3
:1003700048E02A4B1B68BA7992000F2101FA02F279
:10038000D2431146254A0B401360244B1B687979F0
:10039000BA79920001FA02F21146204A0B43136027
:1003A00030E01F4B1B68BA7992000F2101FA02F26C
:1003B000D24311461A4A0B401360194B1B687979D6
:1003C000BA79920001FA02F21146154A0B43136002
:1003D00018E0144B1B68BA7992000F2101FA02F25F
:1003E000D24311460F4A0B4013600E4B1B687979BC
:1003F000BA79920001FA02F211460A4A0B431360DD
:1004000000E000BF00BF0C37BD4680BC704700BF96
:1004100000080140000C01400010014004080140A8
:10042000040C01400410014080B483B000AF0346C7
:100430000A46FB711346BB71FB79022B2DD8BB79A1
:100440000F2B2AD8FB79022B1CD0022B26DC002B89
:1004500002D0012B0BD021E0134B1B68BA7901218C
:1004600001FA02F21146104A4B40136016E00F4B9E
:100470001B68BA79012101FA02F211460B4A4B407E
:1004800013600BE00A4B1B68BA79012101FA02F2F2
:100490001146074A4B40136000E000BF00BF0C3715
:1004A000BD4680BC704700BF0C0801400C0C0140E9
:1004B0000C10014080B500AF074B5B69064A43F062
:1004C0000103536105210020FFF7AEFF192000F062
:1004D00005F800BF80BD00BF0004014080B485B0B6
:1004E00000AF78600023FB6003E000BFFB680133CE
:1004F000FB607B684FF4FA7202FB03F3FA689A42DE
:10050000F3D300BF00BF1437BD4680BC7047000066
:1005100080B400AF034B00221A6000BFBD4680BC10
:10052000704700BF10E000E080B483B000AF786097
:10053000114A7B685360104B1B680F4A43F001035C
:10054000136000E000BF0C4B1B681B0C03F00103A1
:10055000002BF7D0084B1B68074A23F001031360F8
:10056000054B00225A60044B00229A6000BF0C37F2
:10057000BD4680BC704700BF10E000E080B582B08F
:1005800000AF124B1B78002B11D1114B1B68104A86
:1005900023F0020313600E4B1B680D4A23F0010386
:1005A00013600B4B00225A60094B00229A60094BE2
:1005B0001B689847064B1B681B0CDBB203F001035A
:1005C000FB7100BF0837BD4680BD00BF2000002082
:1005D00010E000E01C00002080B582B000AF0346B0
:1005E0000A46FB711346BB71B979FB7902221846A2
:1005F000FFF748FE00BF0837BD4680BD80B582B01A
:1006000000AF03460A46FB711346BB71BA79FB790A
:1006100011461846FFF708FF00BF0837BD4680BDEA
:1006200080B483B000AF3A601A460346FB710B46B4
:10063000BB801346BB71FA79164913465B0013441D
:100640009B000B44BA881A80FA79124913465B0062
:1006500013449B000B4404333A681A60FA790D493D
:1006600013465B0013449B000B44083301221A70AD
:10067000FA79BB7998B2074913465B0013449B0093
:100680000B440A3302461A8000BF0C37BD4680BCBB
:10069000704700BF2400002080B582B000AF002367
:1006A0007B604EE02B497A6813465B0013449B0045
:1006B0000B4408331B78002B3FD026497A68134639
:1006C0005B0013449B000B440A331B88002B1ED194
:1006D00020497A6813465B0013449B000B440433A3
:1006E0001B6898471B497A6813465B0013449B00BC
:1006F0000B441B88013B98B216497A6813465B008D
:1007000013449B000B440A3302461A8016E0114939
:100710007A6813465B0013449B000B440A331B8822
:10072000013B98B20B497A6813465B0013449B0067
:100730000B440A3302461A8000E000BF7B68013395
:100740007B607B68022BADDD00BF00BF0837BD4674
:1007500080BD00BF2400002080B500AFFFF79CFFE4
:100760000248FFF7E1FE00BF80BD00BF40420F001E
:1007700080B500AFFFF7FCFC02210220FFF740FD2F
:1007800000210020FFF728FF01210020FFF724FFB0
:1007900002210020FFF720FFFFF7BAFE00230A4ADC
:1007A00003210020FFF73CFF0123084A0521012017
:1007B000FFF736FF0223064A02210220FFF730FF2F
:1007C000FFF7CAFFFCE700BFD5070008E5070008F0
:1007D000F507000880B500AF00210020FFF70EFFED
:1007E00000BF80BD80B500AF01210020FFF706FFEC
:1007F00000BF80BD80B500AF02210020FFF7FEFEE4
:1008000000BF80BD0D488546AFF300800C480D4900
:100810000D4A002302E0D458C4500433C4188C425B
:10082000F9D30A4A0A4C002301E013600432A242C1
:10083000FBD300F011F8FFF79BFFFEE7005000200C
:100840000000002000000020C00800080000002078
:1008500014010020FEE7000070B500260C4D0D4C81
:10086000641BA410A64209D100F01AF800260A4D14
:100870000A4C641BA410A64205D170BD55F8043B78
:1008800098470136EEE755F8043B98470136F2E702
:10089000B8080008B8080008B8080008BC08000834
:1008A000F8B500BFF8BC08BC9E467047F8B500BF5D
:0808B000F8BC08BC9E4670472D
:0408B80055010008DE
:0408BC0031010008FE
:0400000508000805E2
:00000001FF
