:020000040800F2
:100000000050002089110008D9110008D9110008FA
:10001000D9110008D9110008D9110008000000000A
:10002000000000000000000000000000D9110008DE
:10003000D911000800000000D9110008D9110008EA
:10004000D9110008D9110008D9110008D9110008E8
:10005000D9110008D9110008DD0F0008D9110008D6
:10006000D9110008D9110008D9110008D9110008C8
:10007000D9110008D9110008D9110008D9110008B8
:10008000D9110008D9110008D9110008D9110008A8
:10009000D9110008D9110008D9110008D911000898
:1000A000D9110008D9110008D9110008D911000888
:1000B000D9110008D9110008D9110008D911000878
:1000C000D9110008D9110008D9110008D911000868
:1000D000D9110008D9110008D9110008D911000858
:1000E000D9110008D911000800000000D91100083A
:1000F000D9110008D9110008D9110008D911000838
:10010000D9110008D9110008D9110008D911000827
:10011000D9110008D9110008D9110008D911000817
:10012000D9110008D9110008D9110008D911000807
:1001300010B5054C237833B9044B13B10448AFF321
:1001400000800123237010BD00000020000000008B
:100150002412000808B5034B1BB103490348AFF351
:10016000008008BD000000000400002024120008E8
:1001700070B54FF0FF0C4CF4E06C1CEA11541DBF3D
:100180001CEA135594EA0C0F95EA0C0F00F0DEF808
:100190002C4481EA030621EA4C5123EA4C5350EAED
:1001A000013518BF52EA033541F4801143F480133E
:1001B00038D0A0FB02CE4FF00005E1FB02E506F0CF
:1001C0000042E0FB03E54FF00006E1FB03569CF024
:1001D000000F18BF4EF0010EA4F1FF04B6F5007F2A
:1001E00064F5407404D25FEA4E0E6D4146EB06069C
:1001F00042EAC62141EA55514FEAC52040EA5E5025
:100200004FEACE2EB4F1FD0C88BFBCF5E06F1ED8CE
:10021000BEF1004F08BF5FEA500E50F1000041EB05
:10022000045170BD06F0004646EA010140EA0200B2
:1002300081EA0301B4EB5C04C2BFD4EB0C0541EAD4
:10024000045170BD41F480114FF0000E013C00F3E9
:10025000AB8014F1360FDEBF002001F0004170BD0D
:10026000C4F10004203C35DA0C341BDC04F1140426
:10027000C4F1200500FA05F320FA04F001FA05F2B2
:1002800040EA020001F0004221F0004110EBD3707F
:1002900021FA04F642EB06015EEA430E08BF20EAAB
:1002A000D37070BDC4F10C04C4F1200500FA04F34E
:1002B00020FA05F001FA04F240EA020001F00041E0
:1002C00010EBD37041F100015EEA430E08BF20EA53
:1002D000D37070BDC4F1200500FA05F24EEA020E9B
:1002E00020FA04F301FA05F243EA020321FA04F0CA
:1002F00001F0004121FA04F220EA020000EBD37081
:100300005EEA430E08BF20EAD37070BD94F0000F80
:100310000FD101F00046400041EB010111F4801FB4
:1003200008BF013CF7D041EA060195F0000F18BF65
:10033000704703F00046520043EB030313F4801FA1
:1003400008BF013DF7D043EA0603704794EA0C0F5B
:100350000CEA135518BF95EA0C0F0CD050EA410671
:1003600018BF52EA4306D1D181EA030101F00041EE
:100370004FF0000070BD50EA410606BF1046194616
:1003800052EA430619D094EA0C0F02D150EA013622
:1003900013D195EA0C0F05D152EA03361CBF104663
:1003A00019460AD181EA030101F0004141F0FE4102
:1003B00041F470014FF0000070BD41F0FE4141F486
:1003C000780170BD81F0004102E000BF83F000437E
:1003D00030B54FEA41044FEA430594EA050F08BFE0
:1003E00090EA020F1FBF54EA000C55EA020C7FEAA4
:1003F000645C7FEA655C00F0E2804FEA5454D4EB21
:100400005555B8BF6D420CDD2C4480EA020281EAEA
:10041000030382EA000083EA010180EA020281EA22
:100420000303362D88BF30BD11F0004F4FEA013174
:100430004FF4801C4CEA113102D0404261EB410183
:1004400013F0004F4FEA03334CEA133302D0524209
:1004500063EB430394EA050F00F0A780A4F10104C5
:10046000D5F1200E0DDB02FA0EFC22FA05F28018FF
:1004700041F1000103FA0EF2801843FA05F35941E5
:100480000EE0A5F120050EF1200E012A03FA0EFC64
:1004900028BF4CF0020C43FA05F3C01851EBE3718E
:1004A00001F0004507D54FF0000EDCF1000C7EEBAB
:1004B00000006EEB0101B1F5801F1BD3B1F5001FE9
:1004C0000CD349085FEA30004FEA3C0C04F1010408
:1004D0004FEA445212F5800F80F09A80BCF1004F31
:1004E00008BF5FEA500C50F1000041EB045141EAB3
:1004F000050130BD5FEA4C0C404141EB0101013C7C
:1005000028BFB1F5801FE9D291F0000F04BF01466A
:100510000020B1FA81F308BF2033A3F10B03B3F13C
:1005200020020CDA0C3208DD02F1140CC2F10C02CC
:1005300001FA0CF021FA02F10CE002F11402D8BF2A
:10054000C2F1200C01FA02F120FA0CFCDCBF41EAF6
:100550000C019040E41AA2BF01EB0451294330BDC5
:100560006FEA04041F3C1CDA0C340EDC04F11404A2
:10057000C4F1200220FA04F001FA02F340EA030079
:1005800021FA04F345EA030130BDC4F10C04C4F1BF
:10059000200220FA02F001FA04F340EA030029469F
:1005A00030BD21FA04F0294630BD94F0000F83F4E9
:1005B000801306BF81F480110134013D4EE77FEACC
:1005C000645C18BF7FEA655C29D094EA050F08BF18
:1005D00090EA020F05D054EA000C04BF19461046F9
:1005E00030BD91EA030F1EBF0021002030BD5FEA3D
:1005F000545C05D14000494128BF41F0004130BD65
:1006000014F580043CBF01F5801130BD01F00045B8
:1006100045F0FE4141F470014FF0000030BD7FEA2B
:10062000645C1ABF194610467FEA655C1CBF0B4626
:10063000024650EA013406BF52EA033591EA030F3D
:1006400041F4002130BD00BF90F0000F04BF002135
:10065000704730B54FF4806404F132044FF0000568
:100660004FF0000150E700BF90F0000F04BF0021E1
:10067000704730B54FF4806404F1320410F0004547
:1006800048BF40424FF000013EE700BF42004FEA42
:10069000E2014FEA31014FEA02701FBF12F07F43BF
:1006A00093F07F4F81F06051704732F07F4208BF76
:1006B000704793F07F4F04BF41F40021704730B57D
:1006C0004FF4607401F0004521F000411CE700BFC9
:1006D00050EA010208BF704730B54FF000050AE04C
:1006E00050EA010208BF704730B511F0004502D54D
:1006F000404261EB41014FF4806404F132045FEA4F
:10070000915C3FF4D8AE4FF003025FEADC0C18BFF7
:1007100003325FEADC0C18BF033202EBDC02C2F1E9
:10072000200300FA03FC20FA02F001FA03FE40EA7B
:100730000E0021FA02F11444BDE600BF4FEA410267
:10074000B2F1E04324BFB3F5001CDCF1FE5C0DD92F
:1007500001F0004C4FEAC0024CEA5070B2F1004F79
:1007600040EB830008BF20F00100704711F0804F7C
:1007700021D113F13872BCBF01F00040704741F441
:1007800080114FEA5252C2F11802C2F1200C10FA45
:100790000CF320FA02F018BF40F001004FEAC12329
:1007A0004FEAD32303FA0CFC40EA0C0023FA02F3CD
:1007B0004FEA4303CCE77FEA625307D150EA0133A3
:1007C0001EBF4FF0FE4040F44000704701F0004073
:1007D00040F0FE4040F40000704700BF80F0004051
:1007E00002E000BF81F0004142001FBF5FEA410309
:1007F00092EA030F7FEA226C7FEA236C6AD04FEA09
:100800001262D2EB1363C1BFD2184140484041404D
:10081000B8BF5B42192B88BF704710F0004F40F4FF
:10082000000020F07F4018BF404211F0004F41F41B
:10083000000121F07F4118BF494292EA030F3FD0E7
:10084000A2F1010241FA03FC10EB0C00C3F12003FA
:1008500001FA03F100F0004302D5494260EB400089
:10086000B0F5000F13D3B0F1807F06D340084FEAF4
:10087000310102F10102FE2A51D2B1F1004F40EBE9
:10088000C25008BF20F0010040EA03007047490051
:1008900040EB0000013A28BFB0F5000FEDD2B0FAEE
:1008A00080FCACF1080CB2EB0C0200FA0CF0AABF11
:1008B00000EBC25052421843BCBFD04018437047AF
:1008C00092F0000F81F4000106BF80F400000132B5
:1008D000013BB5E74FEA41037FEA226C18BF7FEA8C
:1008E000236C21D092EA030F04D092F0000F08BFCE
:1008F0000846704790EA010F1CBF0020704712F0B5
:100900007F4F04D1400028BF40F00040704712F1F3
:1009100000723CBF00F50000704700F0004343F058
:10092000FE4040F4000070477FEA226216BF08468E
:100930007FEA23630146420206BF5FEA412390EA51
:10094000010F40F4800070474FF0000304E000BF47
:1009500010F0004348BF40425FEA000C08BF7047F8
:1009600043F0964301464FF000001CE050EA0102BC
:1009700008BF70474FF000030AE000BF50EA0102D1
:1009800008BF704711F0004302D5404261EB4101BE
:100990005FEA010C02BF84460146002043F0B643E3
:1009A00008BFA3F18053A3F50003BCFA8CF2083A08
:1009B000A3EBC25310DB01FA02FC634400FA02FC11
:1009C000C2F12002BCF1004F20FA02F243EB020018
:1009D00008BF20F00100704702F1200201FA02FC7A
:1009E000C2F1200250EA4C0021FA02F243EB02006D
:1009F00008BF20EADC7070474FF0FF0C1CEAD052B1
:100A00001EBF1CEAD15392EA0C0F93EA0C0F6FD071
:100A10001A4480EA010C400218BF5FEA41211ED04F
:100A20004FF0006343EA501043EA5111A0FB01313B
:100A30000CF00040B1F5000F3EBF490041EAD37110
:100A40005B0040EA010062F17F02FD2A1DD8B3F18C
:100A5000004F40EBC25008BF20F00100704790F0FB
:100A6000000F0CF0004C08BF49024CEA502040EA4D
:100A700051207F3AC2BFD2F1FF0340EAC250704713
:100A800040F400004FF00003013A5DDC12F1190F51
:100A9000DCBF00F000407047C2F10002410021FAC3
:100AA00002F1C2F1200200FA02FC5FEA310040F1DB
:100AB000000053EA4C0308BF20EADC70704792F054
:100AC000000F00F0004C02BF400010F4000F013A8C
:100AD000F9D040EA0C0093F0000F01F0004C02BF87
:100AE000490011F4000F013BF9D041EA0C018FE7F6
:100AF0000CEAD15392EA0C0F18BF93EA0C0F0AD0FC
:100B000030F0004C18BF31F0004CD8D180EA010021
:100B100000F00040704790F0000F17BF90F0004FBA
:100B2000084691F0000F91F0004F14D092EA0C0F9C
:100B300001D142020FD193EA0C0F03D14B0218BF2F
:100B4000084608D180EA010000F0004040F0FE4075
:100B500040F40000704740F0FE4040F44000704711
:100B60004FF0FF0C1CEAD0521EBF1CEAD15392EA90
:100B70000C0F93EA0C0F69D0A2EB030280EA010C80
:100B800049024FEA402037D04FF0805343EA111119
:100B900043EA10130CF000408B4238BF5B0042F177
:100BA0007D024FF4000C8B4224BF5B1A40EA0C001C
:100BB000B3EB510F24BFA3EB510340EA5C00B3EB4E
:100BC000910F24BFA3EB910340EA9C00B3EBD10F3C
:100BD00024BFA3EBD10340EADC001B0118BF5FEA8E
:100BE0001C1CE0D1FD2A3FF650AF8B4240EBC250B7
:100BF00008BF20F0010070470CF0004C4CEA502078
:100C00007F32C2BFD2F1FF0340EAC250704740F4C6
:100C100000004FF00003013A37E792F0000F00F0B8
:100C2000004C02BF400010F4000F013AF9D040EA36
:100C30000C0093F0000F01F0004C02BF490011F4CA
:100C4000000F013BF9D041EA0C0195E70CEAD153C2
:100C500092EA0C0F08D142027FF47DAF93EA0C0FA9
:100C60007FF470AF084676E793EA0C0F04D14B028D
:100C70003FF44CAF08466EE730F0004C18BF31F03F
:100C8000004CCAD130F000427FF45CAF31F0004339
:100C90007FF43CAF5FE700BF80B400AF204B1B6820
:100CA0001F4A43F00203136000BF1D4B1B6803F093
:100CB0000203002BF9D01A4B194A1B681360184B1A
:100CC000174A1B681360164B154A1B681360144BB8
:100CD000134A1B681360124B114A1B681360104BB8
:100CE0001B680F4A43F4003313600D4B1B680C4A1A
:100CF00043F4601313600A4B1B68094A43F48003F2
:100D00001360074B064A1B681360064B1B68054AB5
:100D100043F00103136000BF00BFBD4680BC7047B5
:100D2000041002400010024080B483B000AF0346BC
:100D30000A46FB711346BB71BB791F2B2AD8FB797E
:100D4000022B1CD0022B25DC002B02D0012B0BD058
:100D500020E0134B1B68BA79012101FA02F2114617
:100D60000F4A0B43136015E00E4B1B68BA79012143
:100D700001FA02F211460B4A0B4313600AE00A4BD8
:100D80001B68BA79012101FA02F21146064A0B43A7
:100D9000136000BF00BF0C37BD4680BC704700BF6A
:100DA000141002401C1002401810024080B483B09E
:100DB00000AF0346FB710B46BB7113467B71FB7999
:100DC000022B00F2B380BB790F2B00F2AF80BB790E
:100DD000072B52D8FB79022B37D0022B00F3A680C9
:100DE000002B02D0012B18D0A0E0534B1B68BA791E
:100DF00092000F2101FA02F2D24311464E4A0B40F3
:100E000013604D4B1B687979BA79920001FA02F2AE
:100E10001146494A0B43136088E0484B1B68BA7976
:100E200092000F2101FA02F2D2431146434A0B40CD
:100E30001360424B1B687979BA79920001FA02F289
:100E400011463E4A0B43136070E03D4B1B68BA7974
:100E500092000F2101FA02F2D2431146384A0B40A8
:100E60001360374B1B687979BA79920001FA02F264
:100E70001146334A0B43136058E0BB790F2B54D80B
:100E8000BB79083BBB71FB79022B36D0022B4DDCC2
:100E9000002B02D0012B18D048E02A4B1B68BA79EE
:100EA00092000F2101FA02F2D2431146254A0B406B
:100EB0001360244B1B687979BA79920001FA02F227
:100EC0001146204A0B43136030E01F4B1B68BA7970
:100ED00092000F2101FA02F2D24311461A4A0B4046
:100EE0001360194B1B687979BA79920001FA02F202
:100EF0001146154A0B43136018E0144B1B68BA796E
:100F000092000F2101FA02F2D24311460F4A0B4020
:100F100013600E4B1B687979BA79920001FA02F2DC
:100F200011460A4A0B43136000E000BF00BF0C37B4
:100F3000BD4680BC704700BF00080140000C014066
:100F40000010014004080140040C0140041001405D
:100F500080B483B000AF03460A46FB711346BB71F1
:100F6000FB79022B2DD8BB790F2B2AD8FB79022BCA
:100F70001CD0022B26DC002B02D0012B0BD021E051
:100F8000134B1B68BA79012101FA02F21146104A8B
:100F90004B40136016E00F4B1B68BA79012101FA30
:100FA00002F211460B4A4B4013600BE00A4B1B68E0
:100FB000BA79012101FA02F21146074A4B40136047
:100FC00000E000BF00BF0C37BD4680BC704700BFCB
:100FD0000C0801400C0C01400C10014080B500AF22
:100FE000074B5B69064A43F001035361052100206A
:100FF000FFF7AEFF192000F005F800BF80BD00BF6D
:101000000004014080B485B000AF78600023FB602D
:1010100003E000BFFB680133FB607B684FF4FA72AA
:1010200002FB03F3FA689A42F3D300BF00BF143700
:10103000BD4680BC7047000080B500AF124B9B6876
:10104000114A43F0010393601420FFF7DBFF0E4BBE
:101050009B680D4A43F4602393600B4B9B680A4ADC
:1010600043F480139360084B9B68074A43F00403E2
:10107000936000BF044B9B689B0803F00103002BA7
:10108000F8D100BF00BF80BD0024014080B485B00E
:1010900000AF78607B68092B1DD81A4B5B6B194A2F
:1010A00023F001035363174B5B6B164A23F00203D3
:1010B0005363144B5B6B134A23F004035363114BCC
:1010C0005B6B104A23F0080353630E4B5B6B0D4AB6
:1010D00023F0100353630B4B9B680A4A43F48003CD
:1010E000936000BF074B1B685B0803F00103002BF4
:1010F000F8D0044BDB6CFB60FB6818461437BD4628
:1011000080BC70470024014080B582B000AFFFF77B
:10111000C3FD02210220FFF707FE09210220FFF78D
:1011200003FE002200210020FFF740FEFFF784FFAE
:1011300000237B800020FFF7A9FF03469BB27B8042
:101140007B889BB21846FFF7FFFB03464FF08B41AD
:101150001846FFF705FD03461846FFF797FA08A360
:10116000D3E90023FFF704F802460B461046194660
:10117000FFF7E4FA03467B6000BFDBE7AFF30080D4
:101180006666666666660A400D488546AFF300806F
:101190000C480D490D4A002302E0D458C4500433D2
:1011A000C4188C42F9D30A4A0A4C002301E01360A8
:1011B0000432A242FBD300F011F8FFF7A5FFFEE7CF
:1011C0000050002000000020000000204412000811
:1011D000000000201C000020FEE7000070B5002683
:1011E0000C4D0D4C641BA410A64209D100F01AF856
:1011F00000260A4D0A4C641BA410A64205D170BDFE
:1012000055F8043B98470136EEE755F8043B9847FC
:101210000136F2E73C1200083C1200083C120008BC
:1012200040120008F8B500BFF8BC08BC9E467047E5
:0C123000F8B500BFF8BC08BC9E46704733
:04123C005501000850
:041240003101000870
:040000050800118955
:00000001FF
