:020000040800F2
:1000000000500020B9060008090700080907000889
:100010000907000809070008090700080000000098
:1000200000000000000000000000000009070008B8
:10003000090700080000000009070008BD050008C6
:100040000907000809070008090700080907000850
:100050000907000809070008090700080907000840
:100060000907000809070008090700080907000830
:100070000907000809070008090700080907000820
:100080000907000809070008090700080907000810
:100090000907000809070008090700080907000800
:1000A00009070008090700080907000809070008F0
:1000B00009070008090700080907000809070008E0
:1000C00009070008090700080907000809070008D0
:1000D00009070008090700080907000809070008C0
:1000E00009070008090700080000000009070008C8
:1000F00009070008090700080907000809070008A0
:10010000090700080907000809070008090700088F
:10011000090700080907000809070008090700087F
:10012000090700080907000809070008090700086F
:1001300010B5054C237833B9044B13B10448AFF321
:1001400000800123237010BD00000020000000008B
:100150005407000808B5034B1BB103490348AFF32C
:10016000008008BD000000000400002054070008C3
:1001700080B400AF204B1B681F4A43F0020313609A
:1001800000BF1D4B1B6803F00203002BF9D01A4B74
:10019000194A1B681360184B174A1B681360164BEB
:1001A000154A1B681360144B134A1B681360124BEB
:1001B000114A1B681360104B1B680F4A43F400334D
:1001C00013600D4B1B680C4A43F4601313600A4B19
:1001D0001B68094A43F480031360074B064A1B68F7
:1001E0001360064B1B68054A43F00103136000BF10
:1001F00000BFBD4680BC70470410024000100240A2
:1002000080B483B000AF03460A46FB711346BB714E
:10021000BB791F2B2AD8FB79022B1CD0022B25DCA3
:10022000002B02D0012B0BD020E0134B1B68BA79B6
:10023000012101FA02F211460F4A0B43136015E047
:100240000E4B1B68BA79012101FA02F211460B4AE2
:100250000B4313600AE00A4B1B68BA79012101FACB
:1002600002F21146064A0B43136000BF00BF0C3771
:10027000BD4680BC704700BF141002401C100240F5
:100280001810024080B483B000AF0346FB710B46E8
:10029000BB7113467B71FB79022B00F2B380BB79F3
:1002A0000F2B00F2AF80BB79072B52D8FB79022BC2
:1002B00037D0022B00F3A680002B02D0012B18D0E0
:1002C000A0E0534B1B68BA7992000F2101FA02F2A9
:1002D000D24311464E4A0B4013604D4B1B6879794F
:1002E000BA79920001FA02F21146494A0B431360AF
:1002F00088E0484B1B68BA7992000F2101FA02F29C
:10030000D2431146434A0B401360424B1B68797934
:10031000BA79920001FA02F211463E4A0B43136089
:1003200070E03D4B1B68BA7992000F2101FA02F28E
:10033000D2431146384A0B401360374B1B6879791A
:10034000BA79920001FA02F21146334A0B43136064
:1003500058E0BB790F2B54D8BB79083BBB71FB79B4
:10036000022B36D0022B4DDC002B02D0012B18D0F3
:1003700048E02A4B1B68BA7992000F2101FA02F279
:10038000D2431146254A0B401360244B1B687979F0
:10039000BA79920001FA02F21146204A0B43136027
:1003A00030E01F4B1B68BA7992000F2101FA02F26C
:1003B000D24311461A4A0B401360194B1B687979D6
:1003C000BA79920001FA02F21146154A0B43136002
:1003D00018E0144B1B68BA7992000F2101FA02F25F
:1003E000D24311460F4A0B4013600E4B1B687979BC
:1003F000BA79920001FA02F211460A4A0B431360DD
:1004000000E000BF00BF0C37BD4680BC704700BF96
:1004100000080140000C01400010014004080140A8
:10042000040C01400410014080B483B000AF0346C7
:10043000FB710B46BB7113467B71FB79022B5FD8B6
:10044000BB790F2B5CD87B79012B2AD1FB79022B4E
:100450001CD0022B54DC002B02D0012B0BD04FE020
:100460002A4B1B68BA79012101FA02F21146274A88
:100470000B43136044E0264B1B68BA79012101FA53
:1004800002F21146224A0B43136039E0214B1B68EC
:10049000BA79012101FA02F211461E4A0B43136098
:1004A0002EE07B79002B2AD1FB79022B1CD0022B6A
:1004B00026DC002B02D0012B0BD021E0164B1B6851
:1004C000BA79012101FA02F21146134A0B43136073
:1004D00016E0124B1B68BA79012101FA02F21146AB
:1004E0000E4A0B4313600BE00D4B1B68BA790121D8
:1004F00001FA02F211460A4A0B43136000E000BF02
:1005000000BF0C37BD4680BC704700BF10080140DB
:10051000100C01401010014014080140140C01405F
:100520001410014080B485B000AF78600023FB60F8
:1005300003E000BFFB680133FB607B684FF4FA7295
:1005400002FB03F3FA689A42F3D300BF00BF1437EB
:10055000BD4680BC7047000080B400AF034B002252
:100560001A6000BFBD4680BC704700BF10E000E0CD
:1005700080B483B000AF786039600D4A7B68536007
:100580000B4B1B680A4A43F001031360094A3B689E
:100590001360074B1B68064A43F002031360064BC7
:1005A00000221A7000BF0C37BD4680BC704700BFE8
:1005B00010E000E01C0000202000002080B582B088
:1005C00000AF124B1B78002B11D1114B1B68104A46
:1005D00023F0020313600E4B1B680D4A23F0010346
:1005E00013600B4B00225A60094B00229A60094BA2
:1005F0001B689847064B1B681B0CDBB203F001031A
:10060000FB7100BF0837BD4680BD00BF2000002041
:1006100010E000E01C00002080B500AF0B4B1B7801
:10062000002B08D100220D210220FFF7FDFE074B11
:1006300001221A7007E001220D210220FFF7F4FECB
:10064000024B00221A7000BF80BD00BF21000020B5
:1006500080B500AFFFF78CFD04210220FFF7D0FD2D
:1006600002220D210220FFF70DFEFFF775FF104952
:100670001048FFF77DFF4FF4FA60FFF753FF0C4976
:100680000C48FFF775FF4FF4FA60FFF74BFF08497E
:100690000848FFF76DFF4FF4FA60FFF743FF044986
:1006A0000448FFF765FF4FF4FA60FFF73BFFFEE7F2
:1006B0001906000840420F000D488546AFF3008040
:1006C0000C480D490D4A002302E0D458C4500433AD
:1006D000C4188C42F9D30A4A0A4C002301E0136083
:1006E0000432A242FBD300F011F8FFF7B1FFFEE79E
:1006F00000500020000000200000002074070008C7
:100700000000002024000020FEE7000070B5002655
:100710000C4D0D4C641BA410A64209D100F01AF830
:1007200000260A4D0A4C641BA410A64205D170BDD8
:1007300055F8043B98470136EEE755F8043B9847D7
:100740000136F2E76C0700086C0700086C07000828
:1007500070070008F8B500BFF8BC08BC9E4670479B
:0C076000F8B500BFF8BC08BC9E4670470E
:04076C00550100082B
:04077000310100084B
:04000005080006B930
:00000001FF
